:020000040800F2
:1000000008110020450100081133000813330008CF
:10001000173300081B3300081F33000800000000DE
:100020000000000000000000000000002333000872
:100030002533000800000000C310000859300008F4
:100040005F0100085F0100085F0100085F01000810
:100050005F0100085F0100085F0100085F01000800
:100060005F0100085F0100085F0100085F010008F0
:100070005F0100085F0100085F0100085F010008E0
:100080005F0100085F0100085F0100085F010008D0
:100090005F0100085F0100085F0100085F010008C0
:1000A0005F0100085F0100085F0100085F010008B0
:1000B0005F0100085F0100085F0100085F010008A0
:1000C0005F0100085F0100085F0100085F01000890
:1000D0005F0100085F0100085F0100085F01000880
:1000E0005F0100085F0100085F0100085F01000870
:1000F0005F0100085F0100085F0100085F01000860
:100100005F0100085F0100085F0100085F0100084F
:100110005F0100085F0100085F0100085F0100083F
:100120005F0100085F0100085F0100085F0100082F
:10013000DFF80CD003F02AF90048004781310008AD
:10014000081100200648804706480047FEE7FEE702
:10015000FEE7FEE7FEE7FEE7FEE7FEE7FEE7FEE777
:1001600047020008310100080CB500200190009002
:100170006C48006840F480306A49086000BF6948F4
:10018000006800F4003000900198401C0190009835
:1001900018B90198B0F5A06FF1D16248006800F479
:1001A000003010B10120009001E000200090009884
:1001B000012843D15C48006840F010005A490860AB
:1001C0000846006820F0030008600846006840F018
:1001D0000200086053484068524948600846406839
:1001E00048600846406840F48060486008464068BF
:1001F00020F47C1048600846406840F4E8104860ED
:100200000846006840F08070086000BF45480068FC
:1002100000F000700028F9D04248406820F0030048
:10022000404948600846406840F00200486000BF0E
:100230003C48406800F00C000828F9D10CBD10B50E
:10024000FFF792FF10BD10B53648006840F001007E
:1002500034490860084640683449084031494860DC
:1002600008460068324908402E4908600846006880
:1002700020F4802008600846406820F4FE004860B2
:100280004FF41F008860FFF7DAFF4FF00060294944
:10029000086010BD10B5002100200022214B5B68D2
:1002A00003F00C0121B1042906D0082928D107E068
:1002B000214B224C236027E01F4B204C236023E07E
:1002C000184B5B6803F47010164B5B6803F48032C4
:1002D000022303EB904022B9194B4343174C236090
:1002E0000DE0104B5B6803F4003323B1144B434320
:1002F000124C236003E0104B4343104C236003E097
:100300000D4B0E4C236000BF00BF064B5B68C3F370
:1003100003130C4CE15C094B1B68CB40074C23607A
:1003200010BD000000100240002002400000FFF855
:10033000FFFFF6FE08ED00E000127A00000000204A
:1003400000093D000400002031490143314A116099
:10035000704770B5002100230F22C47804B32D4CE0
:10036000246804F4E064C4F5E064210AC1F10403E4
:10037000CA40447804FA03F1847814402143090107
:10038000254C0678A155047804F01F050124AC40E3
:1003900005786D11AD0005F1E025C5F8004109E0D3
:1003A000047804F01F050124AC401C4D067876113A
:1003B00045F8264070BD1A4A0A400243154B1B1FE0
:1003C0001A60704739B1134A121D12680243114B6B
:1003D0001B1D1A6006E00F4A121D126882430D4B66
:1003E0001B1D1A607047042808D14FF0E0210969ED
:1003F00041F004014FF0E022116107E04FF0E021ED
:10040000096921F004014FF0E022116170470000FA
:100410000000FA050CED00E000E400E080E100E0FF
:1004200080FFFF1F10B50446CC48844208D101214B
:10043000042000F02DFB0021042000F029FB46E001
:10044000C748844208D10121082000F021FB002187
:10045000082000F01DFB3AE0C248844208D1012187
:10046000102000F015FB0021102000F011FB2EE001
:10047000BD48844208D10121202000F009FB002161
:10048000202000F005FB22E0B848844208D1012179
:10049000402000F0FDFA0021402000F0F9FA16E0BB
:1004A000B348844208D10121802000F0F1FA0021F4
:1004B000802000F0EDFA0AE0AE48844207D1012125
:1004C000801500F0E5FA0021A01500F0E1FA10BD5A
:1004D00010B50121084600F0DBFA0021012000F0F0
:1004E000D7FA10BD2DE9F041024600250026002074
:1004F00000230024002791F803C00CF00F0591F8A9
:1005000003C00CF0100CBCF1000F03D091F802C036
:100510004CEA050591F800C0BCF1000F31D0146819
:1005200000202BE04FF0010C0CFA00F3B1F800C0F2
:100530000CEA03069E4220D183004FF00F0C0CFA08
:1005400003F7BC4305FA03FC4CEA040491F803C02A
:10055000BCF1280F06D14FF0010C0CFA00FCC2F8D8
:1005600014C00AE091F803C0BCF1480F05D14FF068
:10057000010C0CFA00FCC2F810C0401C0828D1D3B2
:100580001460B1F800C0BCF1FF0F34DD54680020E6
:100590002EE000F1080C4FF0010808FA0CF3B1F856
:1005A00000C00CEA03069E4221D183004FF00F0CDD
:1005B0000CFA03F7BC4305FA03FC4CEA040491F877
:1005C00003C0BCF1280F05D100F1080C08FA0CF8A3
:1005D000C2F8148091F803C0BCF1480F07D100F1B4
:1005E000080C4FF0010808FA0CF8C2F81080401C03
:1005F0000828CED35460BDE8F0814FF6FF7101802A
:10060000022181700421C170704702460020936866
:100610000B400BB1012000E00020704701468868C4
:1006200080B2704702460020D3680B400BB1012016
:1006300000E0002070470146C86880B27047016141
:100640007047416170470AB1016100E04161704744
:10065000C16070474FF480320A43826181618261D8
:1006600082698269704702460020434B18684FF642
:100670008073184040EA021008433F4B18607047EF
:100680003E49C8617047F0B50A46002300240021A6
:10069000002500F00046B6F1004F02D1364EF16958
:1006A00001E0354E7168C0F3034583B200F4401693
:1006B000B6F5401F08D121F070612F4E766826F004
:1006C00070662D4F7E6012E000F48016B6F5801F34
:1006D00006D1032606FA05F4A14341F0706106E055
:1006E000460D360103FA06F6B14341F0706122B1BE
:1006F000460D360103FA06F6314300F00046B6F126
:10070000004F02D11C4EF16101E01B4E7160F0BD43
:1007100030B500228B071C0F0F2303FA04F2164B8F
:1007200008338C1053F824309343134C08348D1045
:1007300044F8253023468C1053F824308C07240FBE
:1007400000FA04F423430C4C08348D1044F825308F
:1007500030BD0A49DC3108607047000000080140E4
:10076000000C01400010014000140140001801403D
:10077000001C014000200140000001400000204218
:10078000DF48006840F00100DD4908600846406825
:10079000DC490840DA49486008460068DA49084000
:1007A000D74908600846006820F4802008600846A1
:1007B000406820F4FE0048604FF41F0088607047D6
:1007C000CF49096821F48031CD4A1160114609688A
:1007D00021F480211160B0F5803F03D0B0F5802F67
:1007E0000ED106E0C649096841F48031C44A11605F
:1007F00007E0C349096841F4A021C14A116000E043
:1008000000BF00BF704710B5014600220023002042
:100810004A11012A02D1BA4C236806E0022A02D109
:10082000B74C236A01E0B64C636A01F01F02012451
:1008300094401C400CB1012000E0002010BD38B5F0
:10084000002000900024002500BF3120FFF7DBFFCF
:1008500005460098401C00900098B0F5A06F01D0AC
:10086000002DF2D03120FFF7CEFF08B1012400E0C7
:100870000024204638BD01460020A14A106820F01F
:10088000F80040EAC10010607047A0490860704756
:10089000024600209A4B586820F47C1042EA01037B
:1008A0001843974B5860704798490866704701464F
:1008B0000020934A506820F00300084350607047BE
:1008C0008F48406800F00C007047014600208C4AB9
:1008D000506820F0F0000843506070470146002047
:1008E000874A506820F4E060084350607047014632
:1008F0000020834A506820F4605040EAC1005060F4
:10090000704729B17E4A527A02437D4B5A7204E005
:100910007B4A527A82437A4B5A7270477B49D8316C
:100920000860704701460020754A506820F4404036
:100930000843506070470021714A20321170704A9C
:1009400082F82010012802D004280AD104E00121F5
:100950006B4A2032117005E00521694A203211707E
:1009600000E000BF00BF70476949086070476449F4
:10097000096A0143624A1162704765494439086057
:10098000704730B500210022002400235C4D6D68C3
:1009900005F00C0121B1042905D0082923D105E077
:1009A0005C4D056022E05B4D05601FE0544D6D68B5
:1009B00005F47012524D6D6805F48034022505EB84
:1009C00092421CB9544D554305600BE04C4D6D6887
:1009D00005F400351DB1504D5543056002E04D4D05
:1009E0005543056002E04B4D056000BF00BF444D1C
:1009F0006D6805F0F0010909484D6B5C0568DD4044
:100A000045603F4D6D6805F4E061090A434D6B5C3C
:100A10004568DD4085603A4D6D6805F46051C90A4E
:100A20003E4D6B5C4568DD40C560354D6D6805F435
:100A30004041890B3A4D6B5CC568B5FBF3F5056128
:100A400030BD29B12E4A526902432D4B5A6104E050
:100A50002B4A526982432A4B5A61704729B1284A6E
:100A600092690243264B9A6104E0254A92698243C7
:100A7000234B9A61704729B1214AD2690243204B26
:100A8000DA6104E01E4AD26982431D4BDA61704785
:100A900029B11B4AD2680243194BDA6004E0184AB4
:100AA000D2688243164BDA60704729B1144A126942
:100AB0000243134B1A6104E0114A12698243104B3E
:100AC0001A61704712494039086070470F49C8647D
:100AD00070470B49C87170470948406A40F0807000
:100AE00007494862704701460020054A92680A405B
:100AF0000AB1012000E00020704701498872704768
:100B0000001002400000FFF8FFFFF6FE0000424226
:100B10008004424200127A0000093D0014000020C7
:100B20002400002010B50446FB48844209D101216D
:100B30008803FFF7ADFF00214FF48040FFF7A8FFC7
:100B400032E0F648844209D101214804FFF7ADFFA5
:100B500000214FF40030FFF7A8FF25E0F048844261
:100B600009D101218804FFF7A0FF00214FF4802064
:100B7000FFF79BFF18E0EB48844209D10121C8042C
:100B8000FFF793FF00214FF40020FFF78EFF0BE0EB
:100B9000E548844208D101210805FFF786FF0021BE
:100BA0004FF48010FFF781FF10BD2DE9F04786B0AC
:100BB00005460E460024A24600BFA1460027B08984
:100BC00000B100BF2F462C8A4CF6FF700440F0881D
:100BD00004432C82AC894EF6F3100440B08831896E
:100BE0000843718908430443AC81AC8A4FF6FF4047
:100BF0000440B0890443AC8201A8FFF7C2FEC64896
:100C0000874202D1DDF810A001E0DDF80CA0A88930
:100C100000F4004040B10AEBCA0000EB0A10316852
:100C20004900B0FBF1F807E00AEBCA0000EB0A103C
:100C300031688900B0FBF1F86420B8FBF0F00401E2
:100C40002009642101FB1089A88900F4004040B10B
:100C5000322000EBC900B0FBF1F000F007000443C4
:100C600008E0322000EB09106421B0FBF1F000F045
:100C70000F0004432C8106B0BDE8F0874FF41651F5
:100C8000016000218180C18001810C21418100210E
:100C90008181704710B502460020108A4FF2FF0391
:100CA00018400B884C8823438C882343CC882343EB
:100CB0001843108210BD0021018041808180C180D5
:100CC000704721B1828942F40052828104E0828916
:100CD0004DF6FF731A4082817047F0B50346002439
:100CE00000260025002040F66A17B94200D100BF57
:100CF0001846C1F3421401F01F06012707FA06F552
:100D0000012C01D10C3004E0022C01D1103000E0A4
:100D100014301AB107682F43076002E00768AF4339
:100D20000760F0BD1AB1838A0B43838202E0838A95
:100D30008B4383827047028A4FF6F0731A40028217
:100D4000028A0A430282704782894FF2FF731A4077
:100D5000828182890A438281704721B1828942F06F
:100D60000202828104E082894FF6FD731A4082817B
:100D70007047028A4FF6DF731A400282028A0A43E2
:100D80000282704721B1028A42F48042028204E06A
:100D9000028A4BF6FF731A4002827047C1F30802C1
:100DA0008280704701468888C0F3080070478189B7
:100DB00041F0010181817047028BD2B20283028B24
:100DC00042EA012202837047028B02F47F420283CF
:100DD000028B0A430283704721B1828A42F02002CB
:100DE000828204E0828A4FF6DF731A408282704763
:100DF00021B1828A42F01002828204E0828A4FF698
:100E0000EF731A408282704721B1828A42F0080251
:100E1000828204E0828A4FF6F7731A40828270471A
:100E200021B1828942F40042828103E08289C2F3C7
:100E30000E028281704721B1828A42F4006282826E
:100E400004E0828A4FF2FF731A4082827047828ADE
:100E50004FF6FB731A408282828A0A43828270476D
:100E600021B1828A42F00202828204E0828A4FF635
:100E7000FD731A408282704702460020B1F5007F60
:100E800000D100BF13880B400BB1012000E000200F
:100E9000704701F40072B2F5007F00D100BFCA4371
:100EA0000280704770B50246002400230025002010
:100EB00040F66A16B14200D100BFC1F3421501F0FD
:100EC0001F03012606FA03F3012D02D19689334050
:100ED00006E0022D02D1168A334001E0968A3340A3
:100EE0000C12012606FA04F41688344013B10CB132
:100EF000012000E0002070BD10B50022002340F664
:100F00006A14A14200D100BF0A1201249440A3B286
:100F1000DC43048010BD0000003801400044004064
:100F200000480040004C00400050004010B5012136
:100F300044F20D00FFF792FD10BD08B54FF6FF70AB
:100F4000ADF8000003208DF8020010208DF803009A
:100F500069462348FFF7C6FA012211022048FFF72D
:100F600072FB4FF48060ADF8000004208DF80300A0
:100F700069461C48FFF7B6FA4FF40070ADF8000060
:100F800003208DF8020018208DF8030069461548EB
:100F9000FFF7A8FA08BD10B500214FF00060FFF779
:100FA0000AFA4FF4E060FFF7CFF910BD10B5FFF774
:100FB000BDFFFFF7C2FFFFF7EEFF4FF4165000F042
:100FC0002EF810BD00B585B06846FFF7DAFC019831
:100FD00005B000BD10B5FFF7F5FF0446204610BD73
:100FE000000C01400008014000BF194A128802F0BD
:100FF0008002002AF9D0C0F30802154B1B1D1A808D
:10100000704710B5044621461148FFF7C7FE00BFE0
:1010100080210F48FFF730FF0028F9D010BD1FB521
:10102000044600940020ADF80400ADF80600ADF8C9
:101030000800ADF80C000C20ADF80A006946044821
:10104000FFF7B3FD01210248FFF73BFE1FBD000083
:101050000038014072B6704762B67047EFF31080F7
:1010600072B6704780F310887047B0FA80F070470E
:1010700090FAA0F0704730BF704720BF7047000063
:10108000EFF3108072B6704780F3108870471D48E8
:101090004FF0FF010170002080F309881A480121F8
:1010A00001701A484FF08051016062B6FEE71748A0
:1010B0004FF080510160704714484FF0805101603B
:1010C000704772B6EFF3098028B1203880E8F00F3E
:1010D0000F490968086000B50E4880475DF804EBC9
:1010E0000D480E490A78027009480D490A680260E5
:1010F000106890E8F00F203080F309884EF0040E5D
:1011000062B6704722ED00E04A00002004ED00E0E6
:10111000500000204330000843000020440000201D
:10112000580000200246002005E011F8013B02F8BB
:10113000013B431CD8B20B78002BF6D113707047DB
:101140002DE9F04105460E4614460027FC4800787C
:10115000002804DD112020700020BDE8F0812878EF
:10116000012808D0022807D0032802D0042804D17F
:1011700000E000BF00BF00BF03E00120207000209E
:10118000EBE700BFFFF77CFF074605F10F01304694
:10119000FFF7C8FF80463846FFF776FF0020207033
:1011A0004046DAE70146002002E0491C421CD0B26A
:1011B0000A78002AF9D170472DE9F04105460F461B
:1011C00014464FF00008DE480078002803DD1220A6
:1011D0002070BDE8F0812878012808D0022807D0C7
:1011E000032802D0042804D100E000BF00BF00BFE4
:1011F00002E001202070ECE700BFFFF741FF8046CE
:101200003846FFF7CFFF06460F2E05DD4046FFF7B5
:101210003BFF0B202070DCE7394605F10F00FFF79C
:1012200081FF4046FFF730FF0020207000BFD0E76D
:10123000F0B5024612F8344F95785678343A0B469A
:1012400018680FE000F10B073F5DB74300F10B0C8E
:101250000CF8047067463F5D17B9877AAF43877211
:101260001B1D18680028EDD1F0BDB649B64A1278AA
:10127000885CB649095CB34A515C01EBC001B44AD1
:101280001170704710B50024FFF7FAFE0446AC4811
:101290000078F0B9AF480078D8B9FFF7E6FFAC485E
:1012A0000078AD490978884213D0AC48A84909783C
:1012B00050F82100AA49086008460068806B401C6D
:1012C00009688863A7480068401CA6490860FFF7C2
:1012D000EEFE2046FFF7D8FE10BD70B50146002493
:1012E000A14D2D68EC61A04C246821620B46186862
:1012F0001BE09D4C246894F8345000F10B04645DAD
:10130000994D2D6895F835502C43974D2D6895F8DB
:10131000346000F10B05AC55847A934D2D6895F837
:1013200036502C4384721B1D18680028E1D18E4C66
:10133000246894F83420854CA45C8B4D2D6895F876
:101340003550AC43814DAC542C46A45C44B9864C1A
:10135000246894F836507C4C2478AC437A4D2C7039
:1013600070BD2DE9FF4F83B080460E461546109F95
:10137000002001903060C146D9F8004018E0207884
:10138000012807D0032804D0042805D0052802D15D
:1013900003E008E007E000BF00BF01203870002034
:1013A00007B0BDE8F08F00BF09F10409D9F800408B
:1013B000002CE4D162480078002803DD0220387058
:1013C0000020EDE763480078002803DD0D20387029
:1013D0000020E5E7FFF754FE0190002002908246CE
:1013E0008346C146D9F800403DE02078012819D055
:1013F000032804D0042827D0052824D125E02089FB
:1014000000280CDD2089401E208110C6012002909A
:10141000002001C50AF101001FFA80FA01E04BF03B
:10142000010B1BE0606858B1606801C50020606076
:1014300010C6012002900AF101001FFA80FA01E0B3
:101440004BF0020B0AE000BF00BF0198FFF71CFE43
:1014500000203060012038705046A1E700BF09F13C
:101460000409D9F80040002CBFD10298012808D106
:10147000002030600198FFF707FE002038705046CA
:101480008EE73948006890F830004BF0800108433F
:101490003549096881F8300000203349096881F82E
:1014A0003100314906980968C8854046FFF715FFA5
:1014B0000198FFF7E9FDFFF7E5FEFFF7E1FD019079
:1014C0002948006890F8310020B101281BD002287B
:1014D00018D100E000BF24480068C4693CB110C6C0
:1014E000002030600AF101001FFA80FA09E00120B3
:1014F0001D49096881F8310041461B480068FFF723
:1015000097FE06E000BF414617480068FFF790FECF
:1015100000BF00BF1448006890F8310020B10128D6
:101520003FD002283CD136E02078062824D2DFE8DC
:1015300000F0231D1E032425002001C527E0000024
:10154000410000205C3600084500002046000020D5
:101550004400002042000020430000203806002004
:1015600058000020280000205000002000BFF8484C
:101570000068406A01C50AE000BF00BF0198FFF79C
:1015800083FD0020306001203870504608E700BF1E
:10159000002038700AE0002001C50E20387005E0F8
:1015A00000BF002001C50A20387000BF00BF002026
:1015B000E749096881F83000E549096881F8310098
:1015C000E3490968C861E24909680862E0490968B5
:1015D00048620198FFF758FD5046E1E67CB50025CA
:1015E00014E06946284601F026FB064666B9D9484C
:1015F00050F8254044B1012C06D0D4E9020100EB9B
:10160000810060640198A064681CC5B21F2DE8DDEC
:101610007CBD002402E0C82001F0D2FBCE48007857
:101620000028F8D0CD4800686421B0FBF1F0CB4928
:1016300008600846006828B90020C9490870FF20E2
:1016400001F03BFB00BFFFF71BFD0446C5480068E7
:10165000C54908600020C34908602046FFF714FD13
:10166000C1480068BD490968B0FBF1F0C0F16400F1
:10167000BB49087001F094FCFFF7B0FF642001F053
:101680009FFBE0E700B587B0032000218022B74B25
:10169000CDE90132CDE903104FF6FE701E23B44AA6
:1016A0000090AFF2910001F0C3F806AAB1A11E208C
:1016B00001F032FA07B000BD002400BFFFF7E0FCE4
:1016C0000446A8480068401CA64908602046FFF769
:1016D000DBFC01F061FCF1E700B587B003200021DD
:1016E0008022A84BCDE90132CDE903104FF6FF70FF
:1016F0001F23A54A0090AFF23F0001F099F806AA17
:10170000A2A11F2001F008FA07B000BD04E00022EA
:1017100000F8012B4A1E91B20029F8DC704730B561
:101720004FF4A0719D48FFF7F1FF9C4B03F120059A
:1017300000240AE0002018705D603F20D87300216B
:10174000197420332035601C84B2092CF2DB002090
:10175000187058603F20D873002119748F48904941
:10176000086030BD30B54FF48A618E48FFF7CEFF78
:1017700080217848FFF7CAFF8A4B03F15C050024FB
:101780000AE05D613F2083F84C0000214D20C154E8
:101790005C335C35601CC4B20B2CF2D30020586162
:1017A0003F2083F84C0000214D20C15400207E4989
:1017B00008607C487D49086030BD00227C4B1A706F
:1017C0007C49002004E0002201F8012B421CD0B229
:1017D0000428F8DB0022784B1A70784B1A70784B8B
:1017E0001A605B4B1A6070470020764908607649A2
:1017F000087076490870764908707649087076490D
:1018000008605849086058490860544908605249BE
:101810000870704710B501F0B1FBFFF7E5FFFFF767
:10182000CCFFFFF79FFFFFF77AFF00F0BBFEFFF74B
:1018300053FFFFF727FF01F0A2FB10BD65480078BA
:10184000012808D160480078FF2804D25E4800785B
:10185000401C5D490870704710B500245D48007851
:10186000012830D1FFF70CFC0446574800780028C7
:1018700004DD55480078401E5349087052480078EE
:10188000F0B952480078D8B9FFF7EFFC4B48007820
:1018900049490978884213D02E484849097850F8B8
:1018A00021004749086008460068806B401C0968B1
:1018B000886349480068401C47490860FFF7FCFB03
:1018C0002046FFF7E1FB10BD10B500244148007829
:1018D000012811D1FFF7D4FB04463B48007840B9FA
:1018E0003A480078FF2804D238480078401C37492D
:1018F00008702046FFF7C8FB10BD10B5002435481E
:101900000078012822D1FFF7BBFB04462F4800785E
:10191000002818DD2D480078401E2C490870084624
:10192000007860B92848007828B92046FFF7ACFB5A
:10193000FFF7A8FC0AE02046FFF7A6FB06E02046DA
:10194000FFF7A2FB02E02046FFF79EFB10BD000060
:101950005000002038060020400000203800002001
:10196000340000204C0000203C0000203802002001
:101970003404002075432F4F532D4949205374617F
:1019800074000000380400203406002075432F4FF7
:10199000532D49492049646C650000006C0000200B
:1019A0002C000020B80600205C000020540000201D
:1019B0004500002046000020430000204400002095
:1019C0005800002064000020410000204200002058
:1019D0004B0000204A0000202800002010B5E648F7
:1019E000007890B9FFF741FCE4480078E4490870BA
:1019F000E448E249097850F82100E34908600846C4
:101A00000068E2490860FFF742FB10BD10B50024F2
:101A1000022001F0D5F9FFF733FB04460020DC4932
:101A200008602046FFF730FB642001F0C9F9FFF79A
:101A300027FB0446D6480068D64908600120D649ED
:101A400008702046FFF720FB10BD70B5002601F09E
:101A500002FBFFF715FB0646D0480068401CCF4943
:101A600008603046FFF710FBC3480078012853D1C7
:101A7000CB48007820B1012804D0022809D103E026
:101A800001250BE0002509E001250120C44908706B
:101A900004E001250020C249087000BF00BF05B95D
:101AA00070BDC048046833E0FFF7EAFA0646E08DEF
:101AB00050B3E08D401E80B2E08528BB94F8300022
:101AC00000F0370040B114F8300F20F037002070DC
:101AD00001206070303C02E0002084F8310094F86E
:101AE000300000F0080078B93434A078AE490978A5
:101AF0000843AD4908702078AC49085C6178084318
:101B000014F83419A94A505464693046FFF7BCFAF6
:101B100094F832001F28C7D100BFC1E74FF48F707F
:101B20007047704710B590F8342001F10B039B5CAF
:101B300090F83540A34301F10B04A35423469B5C6A
:101B400023B98B7A90F83640A3438B7210BD2DE9F0
:101B5000F04F05460F4690469946A87A94490E5C88
:101B600005F10B00805D11F800B00BEBC60000F032
:101B7000FF0A844850F82A400020243460812760FE
:101B8000207B20EA0800207384F80D90207B243C01
:101B900000F0080068B994F83600834909780843D2
:101BA000814908708148805D94F8351008437F4969
:101BB000885529462046FFF7B5FF206A20B1204608
:101BC000216AFFF735FBE5615046BDE8F08F10B59F
:101BD0006E4A1268D0616D4A126892F8343000F192
:101BE0000B02D25C694B1B6893F835301A43674B84
:101BF0001B6893F8344000F10B031A55827A634B4B
:101C00001B6893F836301A438272604A126892F861
:101C10003410664A525C5D4B1B6893F835309A432A
:101C2000624B5A541A46525C42B9584A126892F8AA
:101C300036305D4A12789A435B4B1A7010BD002310
:101C4000837200F10B01002204E0002301F8013B44
:101C5000531CDAB2042AF8DB704705E011F8013BA7
:101C600000F8013B531E9AB2002AF7DC70472DE9B9
:101C7000F84F05460E4617469846DDE90BABDDF8F2
:101C8000289000200090FFF7FBF900904948046875
:101C9000002C6BD0183454F8040C464908600098A6
:101CA000FFF7F2F944F8186CA576002020766076EC
:101CB000E08244F814AC44F80C9C44F8107C24F8FE
:101CC00008BC24F8068CE077E810207705F00700C0
:101CD000E076217F01208840A077E17E01208840C6
:101CE000607700206060A0602061E0602062A062F8
:101CF0006062E06220633F2084F83400183C0021D9
:101D00004D200155204601F0A0F9204601F038F998
:101D1000FFF7B6F900901B4840F8254021480068BD
:101D200060610020A0611F48006810B11D48006874
:101D300084611C4804603434A0781B490978084346
:101D40001949087020781949085C6178084314F82B
:101D50003419164A505418480078401C1649087027
:101D60000098FFF791F90020BDE8F88F0098FFF781
:101D70008BF94220F8E700004A00002044000020D0
:101D800043000020380600205800002050000020AA
:101D90004C0000203800002040000020640000209B
:101DA000600000205C00002045000020460000206C
:101DB0005C360008540000204B0000202DE9F05F45
:101DC00004460F4691461E464FF0000B207805282A
:101DD00004D0012030700020BDE8F09F09F0800A97
:101DE000BAF1000F04D029F080094FF0010801E09A
:101DF0004FF0000800203070FFF742F98346B9F138
:101E0000000F2CD0B9F1010F3BD0B9F1020F03D074
:101E1000B9F1030F46D111E0208900EA0705BD4260
:101E200006D1B8F1010F05D12089A843208101E036
:101E3000702030705846FFF727F93AE0208900EA11
:101E4000070535B1B8F1010F05D12089A8432081DC
:101E500001E0702030705846FFF716F929E020891C
:101E600027EA0005BD4206D1B8F1010F05D120894E
:101E70002843208101E0702030705846FFF704F9B4
:101E800017E0208927EA000535B1B8F1010F05D127
:101E900020892843208101E0702030705846FFF7E8
:101EA000F3F806E05846FFF7EFF800256F20307092
:101EB00000BF00BF28468FE72DE9F04106460D46DA
:101EC0000027F8480078002804DD10202870002042
:101ED000BDE8F081FFF7D4F80746F348046894B1F1
:101EE00000684068F04908600520207026810020C5
:101EF00060603F20A0720021E1723846FFF7C4F80D
:101F00000020287004E03846FFF7BEF872202870E1
:101F10002046DDE730B501464A6808682AB9CC6832
:101F2000606028B10025456002E0106000B14260A9
:101F30008B6800259D6230BDF0B506460F46B4683B
:101F400000202C3460802780207920F02000207130
:101F50000020607120792C3C88B93434A078D349B2
:101F600009780843D14908702078D149085C617824
:101F7000084314F83419CE4A5054012500E00025D6
:101F80003046FFF7C7FF2846F0BD2DE9F04704466D
:101F9000894615464FF0000AC2480078002804DD43
:101FA0000F2028702046BDE8F0872078052803D050
:101FB000012028702046F6E7FFF762F88246606845
:101FC00008B1012700E00027B9F1000F03D0B9F1F3
:101FD000010F40D11BE09FB93F20A0720021E172A8
:101FE00000202070B0480068606000202081AE486A
:101FF00004605046FFF748F800202870002605E0EE
:102000005046FFF741F84920287026462AE0D4F8C8
:10201000048005E000214046FFF78EFFD8F80080DD
:10202000B8F1000FF6D13F20A0720021E17200202C
:1020300020709D4800686060002020819A480460FC
:102040005046FFF721F8012F01D1FFF71BF90020BF
:102050002870002606E05046FFF716F80720287083
:10206000264600BF00BF30469DE72DE9F0410546FA
:102070000E46144600278B480078002804DD112006
:1020800020700020BDE8F081FEF7FAFF07462878AF
:10209000052806D03846FEF7F7FF01202070002003
:1020A000F0E705F10A013046FFF73CF88046384674
:1020B000FEF7EAFF002020704046E3E72DE9F041FB
:1020C00005460F4614464FF0000876480078002871
:1020D00003DD12202070BDE8F081FEF7D1FF8046BD
:1020E0002878052805D04046FEF7CEFF0120207055
:1020F000F1E73846FFF756F806460F2E05DD404655
:10210000FEF7C2FF73202070E5E7394605F10A00AB
:10211000FFF708F84046FEF7B7FF0020207000BF29
:10212000D9E7F0B51446059E624F3F6897F83070C6
:1021300047F02007DFF87CC1DCF800C08CF8307075
:102140000027DFF870C1DCF800C08CF83170594FFF
:102150003F68FE85574F3F68B9620C828B74554FBC
:102160003F688F6047680F6000274F60C860456810
:1021700005B1696041604F4F3F6897F834204C4F7C
:10218000BF5CDFF830C1DCF800C09CF835C027EA3E
:102190000C07DFF81CC10CF802706746BF5C5FB922
:1021A000444F3F6897F836C0404F3F7827EA0C0706
:1021B000DFF8F8C08CF80070F0BD2DE9F04F89B061
:1021C00005460F4691469A46129E002002903548D9
:1021D0000078002805DD02203070002009B0BDE83D
:1021E000F08F35480078002803DD0D203070002086
:1021F000F4E72878052803D0012030700020EDE7AF
:1022000009F0800BBBF1000F04D029F080094FF0DA
:10221000010801E04FF00008FEF732FF0290B9F12B
:10222000000F57D0B9F1010F77D0B9F1020F03D0E9
:10223000B9F1030F70D120E0288900EA0704BC42FD
:102240000FD1B8F1010F02D12889A0432881194884
:10225000006884850298FEF717FF00203070204642
:10226000BCE74B463A4604A92846CDF800A0FFF744
:1022700058FF0298FEF708FF77E0288900EA070474
:10228000E4B1B8F1010F02D12889A043288109489F
:10229000006884850298FEF7F7FE00203070204623
:1022A0009CE7000041000020300000204500002095
:1022B0004600002050000020420000204B463A46D5
:1022C00004A92846CDF800A0FFF72BFF0298FEF7DF
:1022D000DBFE4AE0288927EA0004BC420FD1B8F1AE
:1022E000010F02D1288920432881BF4800688485D6
:1022F0000298FEF7C9FE0020307020466EE74B467C
:102300003A4604A92846CDF800A0FFF70AFF029834
:10231000FEF7BAFE29E000E01FE0288927EA000462
:102320007CB1B8F1010F02D1288920432881AE4841
:10233000006884850298FEF7A7FE002030702046D2
:102340004CE74B463A4604A92846CDF800A0FFF7D3
:10235000E8FE0298FEF798FE07E00298FEF794FE6A
:1023600000246F203070204638E700BFFEF78AFF58
:10237000FEF786FE02909C48006890F8310020B37A
:102380009948006890F83100039000209649096848
:1023900081F8310004A8FFF7BDFD002092490968CB
:1023A00081F830000298FEF76FFE002403980128A0
:1023B00005D0022802D10E20307003E000BF0A20B1
:1023C000307000BF00BF204608E787480068848D52
:1023D000B8F1010F1ED1B9F1000F0ED0B9F1010F04
:1023E0000CD0B9F1020F03D0B9F1030F0AD100E00C
:1023F00000BF2889A04328810BE000BF2889204323
:10240000288106E00298FEF73FFE6F203070002022
:10241000E4E600BF0298FEF737FE00203070204649
:10242000DCE670B50025FEF72BFE05466E48006819
:10243000848D2846FEF728FE204670BD2DE9FC5FFE
:102440000446894692461E460020009020780528C2
:1024500004D0012030700020BDE8FC9FFEF710FE84
:102460000090BAF1000F03D0BAF1010F0AD104E0D5
:10247000208920EA090020810BE0208940EA090038
:10248000208106E00098FEF7FFFD712030700020EB
:10249000E2E700BF4FF0000B656855E0A87C40B351
:1024A000012838D0022802D0032844D111E0208925
:1024B000298A00EA0107288AB84209D13946284604
:1024C000FFF73AFD8046B8F1010F01D14FF0010B43
:1024D00038E02089298A00EA01074FB139462846A9
:1024E000FFF72AFD8046B8F1010F01D14FF0010B33
:1024F00028E0288A218920EA0107288AB84209D1E0
:1025000039462846FFF718FD8046B8F1010F01D182
:102510004FF0010B16E0288A218920EA01074FB10C
:1025200039462846FFF708FD8046B8F1010F01D172
:102530004FF0010B06E00098FEF7A6FD6F2030700B
:10254000002089E700BF2D68002DA7D10098FEF775
:102550009BFDBBF1010F01D1FEF794FEFEF790FD4C
:102560000090208901900098FEF78EFD00203070C9
:10257000019871E72DE9F04104460D4600272078C7
:10258000052804D0012028700020BDE8F081FEF766
:1025900077FD074626893846FEF776FD002028702D
:1025A0003046F2E770B58C211048FFF7AFF80F4CBA
:1025B00004F11C0600250AE00020207066603F2020
:1025C000A0720021E1721C341C36681C85B2042DF7
:1025D000F2DB0020207060603F20A0720021E172D9
:1025E00002480349086070BD50000020AC01002083
:1025F000300000202DE9F34F85B08846002001907F
:10260000FEF73EFD0190F74850F8280030B10198E0
:10261000FEF73AFD282007B0BDE8F08F0598FF28A7
:1026200004D1F148006890F832000590ED49059812
:1026300051F8205025B90198FEF726FD2920EAE738
:10264000012D04D10198FEF71FFD4320E3E74FEA77
:10265000E80708F0070003900120B84000F0FF09E8
:1026600001210398814001F0FF0A0021DD4A05980D
:1026700042F82010104640F8285095F8346095F83C
:102680003600029095F835B0D848805D00EA0B001E
:10269000D0B1D648805D20EA0B00D4498855084661
:1026A000805D28B9D248007802998843D0490870E3
:1026B000CF48007840EA0900CD490870CB48C05D9A
:1026C00040EA0A00C949C855EC69D4B104F10B00CD
:1026D000805D20EA0B0004F10B0188550846805DFF
:1026E00018B9A07A02998843A072A07A40EA09003A
:1026F000A07204F10B00C05D40EA0A0004F10B0176
:10270000C855286A30B3286A0490049804681FE00A
:1027100004F10B00805D20EA0B0004F10B018855E9
:102720000846805D18B9A07A02998843A072A07A01
:1027300040EA0900A07204F10B00C05D40EA0A0003
:1027400004F10B01C8550498001D04900498046816
:10275000002CDDD185F8328085F83470039885F837
:10276000330085F8369085F835A00198FEF78CFC8B
:10277000A0480078012801D1FEF784FD00204AE737
:102780002DE9FE4F06460F4690461C464FF00009C5
:10279000FEF776FC814698480078002805DD48461B
:1027A000FEF772FC3C20BDE8FE8F8E4850F82400F6
:1027B00060BB01208B4941F824004846FEF764FCC9
:1027C000002342463946304600F0EEFB82460020A8
:1027D0000090019003460246514602902046FFF7C2
:1027E00046FA054635B98348007801280CD1FEF732
:1027F00049FD09E0FEF744FC81460020794941F893
:1028000024004846FEF740FC2846CCE74846FEF741
:102810003BFC2820C7E702F0010343B102F00203AA
:102820002BB102E0491E002308C00029FAD17047ED
:102830002DE9F04F85B081468A4693461C46DDE976
:102840000F78129D00200390FEF71AFC03906A484F
:102850000078002806DD0398FEF716FC3C2005B042
:10286000BDE8F08F5F4850F8240088BB01205D4927
:1028700041F824000398FEF707FC2A4641463846F3
:10288000FFF7C9FF2B465A465146484600F08CFBDD
:1028900004901198CDE9008002953A4620460E9B9F
:1028A0000499FFF7E4F9064636B952480078012842
:1028B0000CD1FEF7E7FC09E0FEF7E2FB03900020F5
:1028C000484941F824000398FEF7DEFB3046C6E78E
:1028D000FFE70398FEF7D8FB2820C0E72DE9F04179
:1028E0000546002744480078002802DD4020BDE866
:1028F000F0811F2D01D13E20F9E7FEF7C1FB07460D
:10290000FF2D03D13848006890F83250354850F810
:10291000254024B93846FEF7B7FB4320E7E7012CF2
:1029200004D13846FEF7B0FB3D20E0E714F8340F41
:102930002E49085C6178884321782C4A505414F859
:1029400034091146085C30B994F8361028480078EC
:10295000884327490870E06918B12046E169FFF70C
:10296000E1F8206A18B12046216AFEF761FCA66AE8
:1029700016B13046FFF7CEFA0020E08584F830002B
:1029800084F831001D480078FF2804D21B480078E5
:10299000401C1A4908703846FEF776FBFFF7C1F86D
:1029A000FEF76EFB074615480078002804DD134843
:1029B0000078401E11490870204600F0E7FA1048E0
:1029C0000078401E0E4908700020064941F8250095
:1029D000A069C8B90020616988610A496069086016
:1029E00018E00000380600205000002046000020BB
:1029F000450000204A000020410000204200002045
:102A00004B0000205C000020D4E905014861D4E9B6
:102A100005108861E34800686061E24804603F2077
:102A200084F84C0000214D2001553846FEF72CFB60
:102A3000DD480078012801D1FEF724FC002056E78C
:102A40002DE9F041044600271F2C02D13E20BDE8AD
:102A5000F081FF2C0BD1FEF713FB0746D34800682B
:102A600090F837603846FEF70FFB3046EFE7FEF789
:102A700007FB0746CE4850F8245025B93846FEF7E4
:102A800003FB4320E3E7012D04D13846FEF7FCFAAF
:102A90003D20DCE73F2085F837003846FEF7F4FAA2
:102AA0000020D4E72DE9F04706460F4614464FF0C4
:102AB0000008C0480078002804DD112020700020A4
:102AC000BDE8F087FEF7DCFA8046FF2E03D1B74859
:102AD000006890F83260B64850F8265035B9404644
:102AE000FEF7D2FA432020700020E9E7012D06D13D
:102AF0004046FEF7C9FA432020700020E0E705F1C8
:102B00004C013846FEF70EFB81464046FEF7BCFA04
:102B1000002020704846D3E72DE9F0470646884656
:102B200014464FF00009A3480078002803DD122066
:102B30002070BDE8F087FEF7A3FA8146FF2E03D18F
:102B40009A48006890F83260994850F826502DB99C
:102B50004846FEF799FA43202070EAE7012D05D197
:102B60004846FEF791FA43202070E2E74046FEF720
:102B700019FB07460F2F05DD4846FEF785FA412071
:102B80002070D6E7414605F14C00FEF7CBFA4846E7
:102B9000FEF77AFA0020207000BFCAE770B505463C
:102BA0000026FEF76DFA0646814850F8254024B904
:102BB0003046FEF769FA462070BD012C04D130463C
:102BC000FEF762FA4320F7E794F8300000F00800BF
:102BD00060B314F8300F20F00800207014F83009AA
:102BE000F8B9E08DC8B93434A0787349097808433E
:102BF0007149087020787149085C6178084314F8BD
:102C000034196E4A50543046FEF73EFA6648007852
:102C1000012809D1FEF736FB06E03046FEF734FA0C
:102C200002E03046FEF730FA0020C5E73046FEF7F6
:102C30002BFA4420C0E72DE9F04707460D464FF038
:102C4000000A002028606860FEF71AFA8246FF2F0B
:102C500003D15648006890F83270554850F8274024
:102C60002CB95046FEF710FA4320BDE8F087012C3E
:102C700004D15046FEF708FA4320F6E7207C00F026
:102C8000010020B95046FEF7FFF94520EDE7002688
:102C9000D4F80C90D4F808805046FEF7F5F900E01F
:102CA000761C58F8041B0029FAD0B0002860A9EB64
:102CB0000600800068600020D7E72DE9F041054656
:102CC0004FF00008FEF7DCF98046FF2D05D13748AC
:102CD000006890F83250012608E03448006890F807
:102CE0003200A84201D1012600E00026304850F809
:102CF00025402CB94046FEF7C7F94820BDE8F081D1
:102D0000012C04D14046FEF7BFF94320F6E794F8C2
:102D100034702A48C05D94F8351088432749C85557
:102D20000846C05D30B994F83610234800788843CF
:102D30002149087094F8300040F0080084F8300011
:102D40004046FEF7A1F9012E01D1FEF79BFA0020C3
:102D5000D4E72DE9F04105460E460027FEF790F92D
:102D60000746FF2D03D11148006890F832501048F3
:102D700050F825402CB93846FEF786F92920BDE8E1
:102D8000F081012C04D13846FEF77EF94320F6E7A6
:102D90005C2221463046FEF760FF3846FEF774F9A4
:102DA0000020ECE7540000204A00002050000020E2
:102DB0003806002041000020450000204600002089
:102DC00070B50546002667480078002800DD70BD14
:102DD000002D23DDFEF754F906466348006890F89D
:102DE00034406248005D6049096891F835108843B5
:102DF0005E4908550846005D40B95B48006890F898
:102E000036105B4800788843594908705648006876
:102E1000C5853046FEF738F9FEF734FA00BFD6E72D
:102E20002DE9F0470746884691461D464D480078F3
:102E3000002802DD5520BDE8F0874FF47A70684322
:102E40004FF47A71B0FBF1F14FF461607843C8EB55
:102E5000081200EB8200484400EB4002C2EBC010B5
:102E600001EBC004260CA4B22046FFF7A9FF09E03D
:102E70004FF40040FFF7A4FF4FF40040FFF7A0FF1E
:102E8000701E86B2002EF3DC0020D4E770B5054634
:102E900000261F2D01DB2A2070BDFEF7F1F8064643
:102EA000344850F8254024B93046FEF7EDF8432069
:102EB000F2E7012C04D13046FEF7E6F84320EBE7B9
:102EC000E08D20B93046FEF7DFF85020E4E700201F
:102ED000E08594F8300000F0370040B114F8300F6E
:102EE00020F03700207001206070303C02E00020AC
:102EF00084F8310094F8300000F00800A8B93434A8
:102F0000A0781B49097808431949087020781749A7
:102F1000085C6178084314F83419144A5054304658
:102F2000FEF7B2F8FEF7AEF902E03046FEF7ACF875
:102F30000020B1E770B50025FEF7A2F805460E485F
:102F400004682846FEF7A0F8204670BD70B5044618
:102F50000025FEF795F80546074804602846FEF769
:102F600093F870BD41000020500000204600002072
:102F7000450000203806002064000020704770479C
:102F800010B50446204600F01DF910BD10B50446EA
:102F9000204600F018F910BD10B500F015F910BD6D
:102FA00010B500F012F910BD70B5044610464FF090
:102FB00080750560051F28462C606FF00106051F0F
:102FC00028462E604FF01236051F28462E604FF01F
:102FD0000336051F28462E604FF00236051F28468F
:102FE0002E607610051F28462E60051F2846296092
:102FF0004FF01136051F28462E604FF01036051F82
:1030000028462E604FF00936051F28462E604FF0E7
:103010000836051F28462E604FF00736051F284644
:103020002E604FF00636051F28462E604FF00536FD
:10303000051F28462E604FF00436051F28462E60D7
:1030400070BD10B500F0C2F810BD10B504462046A2
:1030500000F0BDF810BD704710B5FEF711F804463A
:1030600011480078401C104908702046FEF70CF803
:10307000FEF7EBFCFEF7F0FB10BD10B5FDF7AAFF65
:103080004FF47A71B0FBF1F4601E4FF0E02148611B
:103090000846006940F0050008610846006940F0F4
:1030A0000200086110BD00004100002010B5484832
:1030B000017848A000F09CF94BA000F099F910BDF0
:1030C00070B54FA000F094F954A000F091F9FEF70C
:1030D00025FD0A2190FBF1F201FB1204FEF71EFD13
:1030E000642190FBF1F201FB12000A2190FBF1F543
:1030F000FEF714FD642190FBF1F623462A46314683
:103100004DA000F075F94FF47A7152A000F070F9FB
:103110005548017855A000F06BF9FDF753FF594968
:10312000B0FBF1F4214658A000F062F95C48016858
:103130005CA000F05DF96048016860A000F058F9FB
:1031400070BDFFF79AFFFEF761FC18E00122110243
:103150005F48FDF778FA0223002211461046FFF778
:103160005FFE00224FF480715948FDF76CFA02238C
:10317000002211461046FFF753FEFFF7A1FFE5E7D7
:1031800008B5FDF767FFFEF745FBFDF70FFFFFF7FB
:1031900097FF50A000F02CF90223524A0021524818
:1031A000FFF7EEFA009051A000F022F96A4655A10F
:1031B0000220FFF7B1FC0020FFF7C8FEFEF70EFC6F
:1031C000002008BD704770477047704770477047D0
:1031D0004A0000204F5352756E6E696E67203D2085
:1031E00025642E0A000000002D2D7465737420667E
:1031F0006F722068616E646C65722D2D0D0A00007F
:103200000D0A20204D69637269756D2075432F4F3B
:10321000532D494920200D0A00000000202053545E
:103220002053544D33322028436F727465782D4DEE
:1032300033290D0A0D0A0000202075432F4F532D0E
:1032400049493A202056256C642E256C64256C640F
:103250000D0A000020205469636B526174653A20A6
:10326000256C6420200D0A003400002020204350EB
:10327000552055736167653A20256C642520202010
:10328000200D0A0040420F0020204350552053706B
:103290006565643A256C64204D487A20200D0A004B
:1032A000640000202020235469636B733A20256C4E
:1032B0006420200D0A000000280000202020234365
:1032C000747853773A20256C6420200D0A0D0A008B
:1032D000000C01404F5320496E6974204F4BA3A14D
:1032E0000D0A0000040D002043310008437265619F
:1032F00074204170705F5461736B5374617274A376
:10330000A10D0A005374617274205461736B000044
:10331000704700BFFEE700BFFEE700BFFEE700BF4B
:10332000FEE770477047704770472DE9F05F05462C
:10333000002092469B4688460646814640241BE074
:10334000284641464746224600F041F853465A4631
:10335000C01A914110D311461846224600F028F8B1
:103360002D1A67EB01084F4622460120002100F08C
:103370001FF817EB00094E41201EA4F10104DFDC09
:10338000484631462A464346BDE8F09F064C074D65
:1033900006E0E06840F0010394E807009847103425
:1033A000AC42F6D3FCF7C8FE5C3700087C37000857
:1033B000202A04DB203A00FA02F1002070479140F5
:1033C000C2F1200320FA03F3194390407047202AEA
:1033D00004DB203A21FA02F00021704721FA02F3BF
:1033E000D040C2F1200291400843194670470000C6
:1033F0000FB4054B10B503A9044A029800F018F861
:1034000010BC5DF814FB0000E90F00086800002004
:1034100002E008C8121F08C1002AFAD1704770479D
:10342000002001E001C1121F002AFBD170470000FB
:103430002DE9FF4F8BB09A460F460446002606E062
:1034400025280BD052460D999047641C761C207895
:103450000028F5D10FB03046BDE8F08F0025A94611
:1034600001227D4900E0054314F8013F203B02FAA8
:1034700003F00842F7D120782E2817D114F8010F55
:1034800045F004052A280ED06FF02F022078A0F115
:10349000300109290AD809EB890102EB410100EB4F
:1034A0000109641CF2E757F8049B641C20786C281F
:1034B0000DD004DC4C2812D06A2811D104E0742805
:1034C0000DD07A280CD10AE045F4001507E06178A8
:1034D00045F48015814202D1641C05F58015641CF9
:1034E000207869283ED006DC0028B3D063280BD0B2
:1034F000642804D136E0732810D075285CD0524679
:103500000D999047761CA5E017F8040B8DF8000084
:1035100000208DF80100E846012003E057F8048BF5
:103520004FF0FF3069074FF0000501D40AE06D1C31
:103530004D450DDA8542FADB18F805100029F6D161
:1035400006E06D1C8542FCDB18F805100029F8D157
:103550002E4404E018F8010B52460D9990476D1E59
:10356000F8D277E000200A90C5F302504FF00A0B22
:1035700002280CD001CFC117021E71F100020CDA33
:103580000023D0EB030063EB01012D2208E0FF1DB7
:1035900027F00707F7E80201EEE72A0504D52B22FA
:1035A0008DF82420012203E0EA070FD02022F7E75C
:1035B0000DF12008089218E000200A90C5F302508F
:1035C0004FF00A0B022803D001CF00210022EFE7C1
:1035D000FF1D27F00707F7E80201F7E75A460A9BA5
:1035E000FFF7A3FE303208F8012D50EA0102F5D1B1
:1035F000ADEB080000F1200B680701D44FF0010982
:10360000D94502DDA9EB0B0000E000208146002532
:1036100006E009A85246405D0D9990476D1C761C46
:1036200008988542F5DB04E0302052460D9990471A
:10363000761CB9F10001A9F10109F5DC05E018F8E3
:10364000010B52460D999047761CBBF10001ABF17E
:10365000010BF4DC641CFAE60928010000000100FB
:10366000020001000300010002000100040001004B
:10367000020001000300010002000100050001003A
:10368000020001000300010002000100040001002B
:103690000200010003000100020001000600010019
:1036A000020001000300010002000100040001000B
:1036B00002000100030001000200010005000100FA
:1036C00002000100030001000200010004000100EB
:1036D00002000100030001000200010007000100D8
:1036E00002000100030001000200010004000100CB
:1036F00002000100030001000200010005000100BA
:1037000002000100030001000200010004000100AA
:103710000200010003000100020001000600010098
:10372000020001000300010002000100040001008A
:103730000200010003000100020001000500010079
:10374000020001000300010002000100040001006A
:103750000200010003000100020001007C370008A4
:10376000000000206C00000010340008E83700085A
:103770006C0000209C1000002034000800A24A04C5
:103780000000000000000000010203040607080911
:1037900000000000010203040102030406070809F7
:1037A0000204060800000000000000000000000005
:1037B0000000000000000000000000000000000009
:1037C00000000000000000000000000000000000F9
:1037D00000000000000000000000000000000000E9
:0837E0000000000000000000E1
:0400000508000131BD
:00000001FF
